{
  "_format": "hh-sol-artifact-1",
  "contractName": "NFT_Fun",
  "sourceName": "contracts/NFT_Fun.sol",
  "abi": [
    {
      "inputs": [],
      "stateMutability": "nonpayable",
      "type": "constructor"
    },
    {
      "anonymous": false,
      "inputs": [
        {
          "indexed": true,
          "internalType": "address",
          "name": "_owner",
          "type": "address"
        },
        {
          "indexed": true,
          "internalType": "address",
          "name": "_approved",
          "type": "address"
        },
        {
          "indexed": true,
          "internalType": "uint256",
          "name": "_tokenId",
          "type": "uint256"
        }
      ],
      "name": "Approval",
      "type": "event"
    },
    {
      "anonymous": false,
      "inputs": [
        {
          "indexed": true,
          "internalType": "address",
          "name": "_owner",
          "type": "address"
        },
        {
          "indexed": true,
          "internalType": "address",
          "name": "_operator",
          "type": "address"
        },
        {
          "indexed": false,
          "internalType": "bool",
          "name": "_approved",
          "type": "bool"
        }
      ],
      "name": "ApprovalForAll",
      "type": "event"
    },
    {
      "anonymous": false,
      "inputs": [
        {
          "indexed": true,
          "internalType": "address",
          "name": "_from",
          "type": "address"
        },
        {
          "indexed": true,
          "internalType": "address",
          "name": "_to",
          "type": "address"
        },
        {
          "indexed": true,
          "internalType": "uint256",
          "name": "_tokenId",
          "type": "uint256"
        }
      ],
      "name": "Transfer",
      "type": "event"
    },
    {
      "inputs": [
        {
          "internalType": "address",
          "name": "_approved",
          "type": "address"
        },
        {
          "internalType": "uint256",
          "name": "_tokenId",
          "type": "uint256"
        }
      ],
      "name": "approve",
      "outputs": [],
      "stateMutability": "nonpayable",
      "type": "function"
    },
    {
      "inputs": [
        {
          "internalType": "address",
          "name": "_owner",
          "type": "address"
        }
      ],
      "name": "balanceOf",
      "outputs": [
        {
          "internalType": "uint256",
          "name": "",
          "type": "uint256"
        }
      ],
      "stateMutability": "view",
      "type": "function"
    },
    {
      "inputs": [
        {
          "internalType": "uint256",
          "name": "_tokenId",
          "type": "uint256"
        }
      ],
      "name": "getApproved",
      "outputs": [
        {
          "internalType": "address",
          "name": "",
          "type": "address"
        }
      ],
      "stateMutability": "view",
      "type": "function"
    },
    {
      "inputs": [
        {
          "internalType": "address",
          "name": "_owner",
          "type": "address"
        },
        {
          "internalType": "address",
          "name": "_operator",
          "type": "address"
        }
      ],
      "name": "isApprovedForAll",
      "outputs": [
        {
          "internalType": "bool",
          "name": "",
          "type": "bool"
        }
      ],
      "stateMutability": "view",
      "type": "function"
    },
    {
      "inputs": [
        {
          "internalType": "string",
          "name": "uri",
          "type": "string"
        }
      ],
      "name": "mint",
      "outputs": [
        {
          "internalType": "bool",
          "name": "",
          "type": "bool"
        }
      ],
      "stateMutability": "nonpayable",
      "type": "function"
    },
    {
      "inputs": [],
      "name": "name",
      "outputs": [
        {
          "internalType": "string",
          "name": "_name",
          "type": "string"
        }
      ],
      "stateMutability": "view",
      "type": "function"
    },
    {
      "inputs": [
        {
          "internalType": "uint256",
          "name": "_tokenId",
          "type": "uint256"
        }
      ],
      "name": "ownerOf",
      "outputs": [
        {
          "internalType": "address",
          "name": "_owner",
          "type": "address"
        }
      ],
      "stateMutability": "view",
      "type": "function"
    },
    {
      "inputs": [
        {
          "internalType": "address",
          "name": "_from",
          "type": "address"
        },
        {
          "internalType": "address",
          "name": "_to",
          "type": "address"
        },
        {
          "internalType": "uint256",
          "name": "_tokenId",
          "type": "uint256"
        }
      ],
      "name": "safeTransferFrom",
      "outputs": [],
      "stateMutability": "nonpayable",
      "type": "function"
    },
    {
      "inputs": [
        {
          "internalType": "address",
          "name": "_from",
          "type": "address"
        },
        {
          "internalType": "address",
          "name": "_to",
          "type": "address"
        },
        {
          "internalType": "uint256",
          "name": "_tokenId",
          "type": "uint256"
        },
        {
          "internalType": "bytes",
          "name": "_data",
          "type": "bytes"
        }
      ],
      "name": "safeTransferFrom",
      "outputs": [],
      "stateMutability": "nonpayable",
      "type": "function"
    },
    {
      "inputs": [
        {
          "internalType": "address",
          "name": "_operator",
          "type": "address"
        },
        {
          "internalType": "bool",
          "name": "_approved",
          "type": "bool"
        }
      ],
      "name": "setApprovalForAll",
      "outputs": [],
      "stateMutability": "nonpayable",
      "type": "function"
    },
    {
      "inputs": [
        {
          "internalType": "bytes4",
          "name": "_interfaceID",
          "type": "bytes4"
        }
      ],
      "name": "supportsInterface",
      "outputs": [
        {
          "internalType": "bool",
          "name": "",
          "type": "bool"
        }
      ],
      "stateMutability": "view",
      "type": "function"
    },
    {
      "inputs": [],
      "name": "symbol",
      "outputs": [
        {
          "internalType": "string",
          "name": "_symbol",
          "type": "string"
        }
      ],
      "stateMutability": "view",
      "type": "function"
    },
    {
      "inputs": [
        {
          "internalType": "uint256",
          "name": "",
          "type": "uint256"
        }
      ],
      "name": "tokenIdToUri",
      "outputs": [
        {
          "internalType": "string",
          "name": "",
          "type": "string"
        }
      ],
      "stateMutability": "view",
      "type": "function"
    },
    {
      "inputs": [
        {
          "internalType": "uint256",
          "name": "_tokenId",
          "type": "uint256"
        }
      ],
      "name": "tokenURI",
      "outputs": [
        {
          "internalType": "string",
          "name": "",
          "type": "string"
        }
      ],
      "stateMutability": "view",
      "type": "function"
    },
    {
      "inputs": [],
      "name": "tokensMinted",
      "outputs": [
        {
          "internalType": "uint256",
          "name": "",
          "type": "uint256"
        }
      ],
      "stateMutability": "view",
      "type": "function"
    },
    {
      "inputs": [
        {
          "internalType": "address",
          "name": "_from",
          "type": "address"
        },
        {
          "internalType": "address",
          "name": "_to",
          "type": "address"
        },
        {
          "internalType": "uint256",
          "name": "_tokenId",
          "type": "uint256"
        }
      ],
      "name": "transferFrom",
      "outputs": [],
      "stateMutability": "nonpayable",
      "type": "function"
    }
  ],
  "bytecode": "0x60806040523480156200001c5760008062000019620001ee565b50505b5060016000806301ffc9a760e01b7bffffffffffffffffffffffffffffffffffffffffffffffffffffffff1916815260200190815260200160002060006101000a81620000686200025e565b8160ff021916908315150217906200007f620002c3565b50505060016000806380ac58cd60e01b7bffffffffffffffffffffffffffffffffffffffffffffffffffffffff1916815260200190815260200160002060006101000a81620000cd6200025e565b8160ff02191690831515021790620000e4620002c3565b5050506001600080635b5e139f60e01b7bffffffffffffffffffffffffffffffffffffffffffffffffffffffff1916815260200190815260200160002060006101000a81620001326200025e565b8160ff0219169083151502179062000149620002c3565b5050506040518060400160405280600781526020017f4e46542e46554e0000000000000000000000000000000000000000000000000081525060059080519060200190620001999291906200032a565b506040518060400160405280600381526020017f46554e000000000000000000000000000000000000000000000000000000000081525060069080519060200190620001e79291906200032a565b5062000420565b632a2a7adb598160e01b8152600481016020815285602082015260005b868110156200022b5780860151816040840101526020810190506200020b565b506020828760640184336000905af158600e01573d6000803e3d6000fd5b3d6001141558600a015760016000f35b505050565b6303daa959598160e01b8152836004820152602081602483336000905af158600e01573d6000803e3d6000fd5b3d6001141558600a015760016000f35b8051935060005b6040811015620002be57600081830152602081019050620002a2565b505050565b6322bd64c0598160e01b8152836004820152846024820152600081604483336000905af158600e01573d6000803e3d6000fd5b3d6001141558600a015760016000f35b60005b6040811015620003255760008183015260208101905062000309565b505050565b8280620003366200025e565b600181600116156101000203166002900490600052602060002090601f01602090048101928262000376576000856200036e620002c3565b5050620003e3565b82601f106200039c57805160ff1916838001178562000394620002c3565b5050620003e3565b82800160010185620003ad620002c3565b50508215620003e3579182015b82811115620003e257825182620003d0620002c3565b505091602001919060010190620003ba565b5b509050620003f29190620003f6565b5090565b5b808211156200041c5760008160009062000410620002c3565b505050600101620003f7565b5090565b61372e80620004306000396000f3fe6080604052348015610019576000806100166132f6565b50505b50600436106101095760003560e01c80636de9f32b116100a0578063b88d4fde1161006f578063b88d4fde14610618578063c87b56dd146106ff578063d85d3d27146107af578063e985e9c5146108a457610109565b80636de9f32b146104bd57806370a08231146104db57806395d89b411461053c578063a22cb465146105bf57610109565b8063119d209a116100dc578063119d209a146102be57806323b872dd1461036e57806342842e0e146103e55780636352211e1461045c57610109565b806301ffc9a71461011757806306fdde0314610183578063081812fc14610206578063095ea7b314610267575b6000806101146132f6565b50505b61016b60048036036020811015610136576000806101336132f6565b50505b8101908080357bffffffffffffffffffffffffffffffffffffffffffffffffffffffff19169060200190929190505050610927565b60405180821515815260200191505060405180910390f35b61018b610995565b6040518080602001828103825283818151815260200191508051906020019080838360005b838110156101cb5780820151818401526020810190506101b0565b50505050905090810190601f1680156101f85780820380516001836020036101000a031916815260200191505b509250505060405180910390f35b61023b60048036036020811015610225576000806102226132f6565b50505b8101908080359060200190929190505050610a53565b604051808273ffffffffffffffffffffffffffffffffffffffff16815260200191505060405180910390f35b6102bc60048036036040811015610286576000806102836132f6565b50505b81019080803573ffffffffffffffffffffffffffffffffffffffff16906020019092919080359060200190929190505050610bea565b005b6102f3600480360360208110156102dd576000806102da6132f6565b50505b8101908080359060200190929190505050611153565b6040518080602001828103825283818151815260200191508051906020019080838360005b83811015610333578082015181840152602081019050610318565b50505050905090810190601f1680156103605780820380516001836020036101000a031916815260200191505b509250505060405180910390f35b6103e36004803603606081101561038d5760008061038a6132f6565b50505b81019080803573ffffffffffffffffffffffffffffffffffffffff169060200190929190803573ffffffffffffffffffffffffffffffffffffffff1690602001909291908035906020019092919050505061121f565b005b61045a60048036036060811015610404576000806104016132f6565b50505b81019080803573ffffffffffffffffffffffffffffffffffffffff169060200190929190803573ffffffffffffffffffffffffffffffffffffffff16906020019092919080359060200190929190505050611864565b005b6104916004803603602081101561047b576000806104786132f6565b50505b8101908080359060200190929190505050611884565b604051808273ffffffffffffffffffffffffffffffffffffffff16815260200191505060405180910390f35b6104c56119df565b6040518082815260200191505060405180910390f35b610526600480360360208110156104fa576000806104f76132f6565b50505b81019080803573ffffffffffffffffffffffffffffffffffffffff1690602001909291905050506119ec565b6040518082815260200191505060405180910390f35b610544611b14565b6040518080602001828103825283818151815260200191508051906020019080838360005b83811015610584578082015181840152602081019050610569565b50505050905090810190601f1680156105b15780820380516001836020036101000a031916815260200191505b509250505060405180910390f35b610616600480360360408110156105de576000806105db6132f6565b50505b81019080803573ffffffffffffffffffffffffffffffffffffffff169060200190929190803515159060200190929190505050611bd2565b005b6106fd60048036036080811015610637576000806106346132f6565b50505b81019080803573ffffffffffffffffffffffffffffffffffffffff169060200190929190803573ffffffffffffffffffffffffffffffffffffffff16906020019092919080359060200190929190803590602001906401000000008111156106a7576000806106a46132f6565b50505b8201836020820111156106c2576000806106bf6132f6565b50505b803590602001918460018302840111640100000000831117156106ed576000806106ea6132f6565b50505b9091929391929390505050611cf1565b005b6107346004803603602081101561071e5760008061071b6132f6565b50505b8101908080359060200190929190505050611d48565b6040518080602001828103825283818151815260200191508051906020019080838360005b83811015610774578082015181840152602081019050610759565b50505050905090810190601f1680156107a15780820380516001836020036101000a031916815260200191505b509250505060405180910390f35b61088c600480360360208110156107ce576000806107cb6132f6565b50505b81019080803590602001906401000000008111156107f4576000806107f16132f6565b50505b82018360208201111561080f5760008061080c6132f6565b50505b8035906020019184600183028401116401000000008311171561083a576000806108376132f6565b50505b91908080601f016020809104026020016040519081016040528093929190818152602001838380828437600081840152601f19601f820116905080830192505050505050509192919290505050611f6c565b60405180821515815260200191505060405180910390f35b61090f600480360360408110156108c3576000806108c06132f6565b50505b81019080803573ffffffffffffffffffffffffffffffffffffffff169060200190929190803573ffffffffffffffffffffffffffffffffffffffff169060200190929190505050611fc1565b60405180821515815260200191505060405180910390f35b6000806000837bffffffffffffffffffffffffffffffffffffffffffffffffffffffff19167bffffffffffffffffffffffffffffffffffffffffffffffffffffffff19168152602001908152602001600020600090610984613364565b906101000a900460ff169050919050565b60606005806109a2613364565b600181600116156101000203166002900480601f016020809104026020016040519081016040528092919081815260200182806109dd613364565b60018160011615610100020316600290048015610a495780601f10610a17576101008083610a09613364565b040283529160200191610a49565b820191906000526020600020905b81610a2e613364565b81529060010190602001808311610a2557829003601f168201915b5050505050905090565b600081600073ffffffffffffffffffffffffffffffffffffffff1660016000838152602001908152602001600020600090610a8c613364565b906101000a900473ffffffffffffffffffffffffffffffffffffffff1673ffffffffffffffffffffffffffffffffffffffff1614156040518060400160405280600681526020017f303033303032000000000000000000000000000000000000000000000000000081525090610ba6576040517f08c379a00000000000000000000000000000000000000000000000000000000081526004018080602001828103825283818151815260200191508051906020019080838360005b83811015610b62578082015181840152602081019050610b47565b50505050905090810190601f168015610b8f5780820380516001836020036101000a031916815260200191505b509250505060405180910390610ba36132f6565b50505b5060026000848152602001908152602001600020600090610bc5613364565b906101000a900473ffffffffffffffffffffffffffffffffffffffff16915050919050565b80600060016000838152602001908152602001600020600090610c0b613364565b906101000a900473ffffffffffffffffffffffffffffffffffffffff1690505a610c336133c7565b73ffffffffffffffffffffffffffffffffffffffff168173ffffffffffffffffffffffffffffffffffffffff161480610d015750600460008273ffffffffffffffffffffffffffffffffffffffff1673ffffffffffffffffffffffffffffffffffffffff16815260200190815260200160002060005a610cb16133c7565b73ffffffffffffffffffffffffffffffffffffffff1673ffffffffffffffffffffffffffffffffffffffff168152602001908152602001600020600090610cf6613364565b906101000a900460ff165b6040518060400160405280600681526020017f303033303033000000000000000000000000000000000000000000000000000081525090610de6576040517f08c379a00000000000000000000000000000000000000000000000000000000081526004018080602001828103825283818151815260200191508051906020019080838360005b83811015610da2578082015181840152602081019050610d87565b50505050905090810190601f168015610dcf5780820380516001836020036101000a031916815260200191505b509250505060405180910390610de36132f6565b50505b5082600073ffffffffffffffffffffffffffffffffffffffff1660016000838152602001908152602001600020600090610e1e613364565b906101000a900473ffffffffffffffffffffffffffffffffffffffff1673ffffffffffffffffffffffffffffffffffffffff1614156040518060400160405280600681526020017f303033303032000000000000000000000000000000000000000000000000000081525090610f38576040517f08c379a00000000000000000000000000000000000000000000000000000000081526004018080602001828103825283818151815260200191508051906020019080838360005b83811015610ef4578082015181840152602081019050610ed9565b50505050905090810190601f168015610f215780820380516001836020036101000a031916815260200191505b509250505060405180910390610f356132f6565b50505b50600060016000868152602001908152602001600020600090610f59613364565b906101000a900473ffffffffffffffffffffffffffffffffffffffff1690508073ffffffffffffffffffffffffffffffffffffffff168673ffffffffffffffffffffffffffffffffffffffff1614156040518060400160405280600681526020017f30303330303800000000000000000000000000000000000000000000000000008152509061108d576040517f08c379a00000000000000000000000000000000000000000000000000000000081526004018080602001828103825283818151815260200191508051906020019080838360005b8381101561104957808201518184015260208101905061102e565b50505050905090810190601f1680156110765780820380516001836020036101000a031916815260200191505b50925050506040518091039061108a6132f6565b50505b50856002600087815260200190815260200160002060006101000a816110b1613364565b8173ffffffffffffffffffffffffffffffffffffffff021916908373ffffffffffffffffffffffffffffffffffffffff160217906110ed613424565b505050848673ffffffffffffffffffffffffffffffffffffffff168273ffffffffffffffffffffffffffffffffffffffff167f8c5be1e5ebec7d5bd14f71427d1e84f3dd0314c0f7b2291e5b200ac8c7c3b92560405160405180910390a4505050505050565b600760205280600052604060002060009150905080611170613364565b600181600116156101000203166002900480601f016020809104026020016040519081016040528092919081815260200182806111ab613364565b600181600116156101000203166002900480156112175780601f106111e55761010080836111d7613364565b040283529160200191611217565b820191906000526020600020905b816111fc613364565b815290600101906020018083116111f357829003601f168201915b505050505081565b80600060016000838152602001908152602001600020600090611240613364565b906101000a900473ffffffffffffffffffffffffffffffffffffffff1690505a6112686133c7565b73ffffffffffffffffffffffffffffffffffffffff168173ffffffffffffffffffffffffffffffffffffffff16148061130e57505a6112a56133c7565b73ffffffffffffffffffffffffffffffffffffffff16600260008481526020019081526020016000206000906112d9613364565b906101000a900473ffffffffffffffffffffffffffffffffffffffff1673ffffffffffffffffffffffffffffffffffffffff16145b806113ae5750600460008273ffffffffffffffffffffffffffffffffffffffff1673ffffffffffffffffffffffffffffffffffffffff16815260200190815260200160002060005a61135e6133c7565b73ffffffffffffffffffffffffffffffffffffffff1673ffffffffffffffffffffffffffffffffffffffff1681526020019081526020016000206000906113a3613364565b906101000a900460ff165b6040518060400160405280600681526020017f303033303034000000000000000000000000000000000000000000000000000081525090611493576040517f08c379a00000000000000000000000000000000000000000000000000000000081526004018080602001828103825283818151815260200191508051906020019080838360005b8381101561144f578082015181840152602081019050611434565b50505050905090810190601f16801561147c5780820380516001836020036101000a031916815260200191505b5092505050604051809103906114906132f6565b50505b5082600073ffffffffffffffffffffffffffffffffffffffff16600160008381526020019081526020016000206000906114cb613364565b906101000a900473ffffffffffffffffffffffffffffffffffffffff1673ffffffffffffffffffffffffffffffffffffffff1614156040518060400160405280600681526020017f3030333030320000000000000000000000000000000000000000000000000000815250906115e5576040517f08c379a00000000000000000000000000000000000000000000000000000000081526004018080602001828103825283818151815260200191508051906020019080838360005b838110156115a1578082015181840152602081019050611586565b50505050905090810190601f1680156115ce5780820380516001836020036101000a031916815260200191505b5092505050604051809103906115e26132f6565b50505b50600060016000868152602001908152602001600020600090611606613364565b906101000a900473ffffffffffffffffffffffffffffffffffffffff1690508673ffffffffffffffffffffffffffffffffffffffff168173ffffffffffffffffffffffffffffffffffffffff16146040518060400160405280600681526020017f303033303037000000000000000000000000000000000000000000000000000081525090611739576040517f08c379a00000000000000000000000000000000000000000000000000000000081526004018080602001828103825283818151815260200191508051906020019080838360005b838110156116f55780820151818401526020810190506116da565b50505050905090810190601f1680156117225780820380516001836020036101000a031916815260200191505b5092505050604051809103906117366132f6565b50505b50600073ffffffffffffffffffffffffffffffffffffffff168673ffffffffffffffffffffffffffffffffffffffff1614156040518060400160405280600681526020017f303033303031000000000000000000000000000000000000000000000000000081525090611850576040517f08c379a00000000000000000000000000000000000000000000000000000000081526004018080602001828103825283818151815260200191508051906020019080838360005b8381101561180c5780820151818401526020810190506117f1565b50505050905090810190601f1680156118395780820380516001836020036101000a031916815260200191505b50925050506040518091039061184d6132f6565b50505b5061185b868661205c565b50505050505050565b61187f83838360405180602001604052806000815250612118565b505050565b6000600160008381526020019081526020016000206000906118a4613364565b906101000a900473ffffffffffffffffffffffffffffffffffffffff169050600073ffffffffffffffffffffffffffffffffffffffff168173ffffffffffffffffffffffffffffffffffffffff1614156040518060400160405280600681526020017f3030333030320000000000000000000000000000000000000000000000000000815250906119d9576040517f08c379a00000000000000000000000000000000000000000000000000000000081526004018080602001828103825283818151815260200191508051906020019080838360005b8381101561199557808201518184015260208101905061197a565b50505050905090810190601f1680156119c25780820380516001836020036101000a031916815260200191505b5092505050604051809103906119d66132f6565b50505b50919050565b60086119e9613364565b81565b60008073ffffffffffffffffffffffffffffffffffffffff168273ffffffffffffffffffffffffffffffffffffffff1614156040518060400160405280600681526020017f303033303031000000000000000000000000000000000000000000000000000081525090611b03576040517f08c379a00000000000000000000000000000000000000000000000000000000081526004018080602001828103825283818151815260200191508051906020019080838360005b83811015611abf578082015181840152602081019050611aa4565b50505050905090810190601f168015611aec5780820380516001836020036101000a031916815260200191505b509250505060405180910390611b006132f6565b50505b50611b0d82612a24565b9050919050565b6060600680611b21613364565b600181600116156101000203166002900480601f01602080910402602001604051908101604052809291908181526020018280611b5c613364565b60018160011615610100020316600290048015611bc85780601f10611b96576101008083611b88613364565b040283529160200191611bc8565b820191906000526020600020905b81611bad613364565b81529060010190602001808311611ba457829003601f168201915b5050505050905090565b80600460005a611be06133c7565b73ffffffffffffffffffffffffffffffffffffffff1673ffffffffffffffffffffffffffffffffffffffff16815260200190815260200160002060008473ffffffffffffffffffffffffffffffffffffffff1673ffffffffffffffffffffffffffffffffffffffff16815260200190815260200160002060006101000a81611c66613364565b8160ff02191690831515021790611c7b613424565b5050508173ffffffffffffffffffffffffffffffffffffffff165a611c9e6133c7565b73ffffffffffffffffffffffffffffffffffffffff167f17307eab39ab6107e8899845ad3d59bd9653f200f220920489ca2b5937696c318360405180821515815260200191505060405180910390a35050565b611d4185858585858080601f016020809104026020016040519081016040528093929190818152602001838380828437600081840152601f19601f82011690508083019250505050505050612118565b5050505050565b606081600073ffffffffffffffffffffffffffffffffffffffff1660016000838152602001908152602001600020600090611d81613364565b906101000a900473ffffffffffffffffffffffffffffffffffffffff1673ffffffffffffffffffffffffffffffffffffffff1614156040518060400160405280600681526020017f303033303032000000000000000000000000000000000000000000000000000081525090611e9b576040517f08c379a00000000000000000000000000000000000000000000000000000000081526004018080602001828103825283818151815260200191508051906020019080838360005b83811015611e57578082015181840152602081019050611e3c565b50505050905090810190601f168015611e845780820380516001836020036101000a031916815260200191505b509250505060405180910390611e986132f6565b50505b506007600084815260200190815260200160002080611eb8613364565b600181600116156101000203166002900480601f01602080910402602001604051908101604052809291908181526020018280611ef3613364565b60018160011615610100020316600290048015611f5f5780601f10611f2d576101008083611f1f613364565b040283529160200191611f5f565b820191906000526020600020905b81611f44613364565b81529060010190602001808311611f3b57829003601f168201915b5050505050915050919050565b6000611f895a611f7a6133c7565b6008611f84613364565b612a74565b611f9c6008611f96613364565b83612d45565b60016008611fa8613364565b0160088190611fb5613424565b50505060019050919050565b6000600460008473ffffffffffffffffffffffffffffffffffffffff1673ffffffffffffffffffffffffffffffffffffffff16815260200190815260200160002060008373ffffffffffffffffffffffffffffffffffffffff1673ffffffffffffffffffffffffffffffffffffffff16815260200190815260200160002060009061204a613364565b906101000a900460ff16905092915050565b60006001600083815260200190815260200160002060009061207c613364565b906101000a900473ffffffffffffffffffffffffffffffffffffffff1690506120a482612d71565b6120ae8183612e29565b6120b88383613058565b818373ffffffffffffffffffffffffffffffffffffffff168273ffffffffffffffffffffffffffffffffffffffff167fddf252ad1be2c89b69c2b068fc378daa952ba7f163c4a11628f55a4df523b3ef60405160405180910390a4505050565b81600060016000838152602001908152602001600020600090612139613364565b906101000a900473ffffffffffffffffffffffffffffffffffffffff1690505a6121616133c7565b73ffffffffffffffffffffffffffffffffffffffff168173ffffffffffffffffffffffffffffffffffffffff16148061220757505a61219e6133c7565b73ffffffffffffffffffffffffffffffffffffffff16600260008481526020019081526020016000206000906121d2613364565b906101000a900473ffffffffffffffffffffffffffffffffffffffff1673ffffffffffffffffffffffffffffffffffffffff16145b806122a75750600460008273ffffffffffffffffffffffffffffffffffffffff1673ffffffffffffffffffffffffffffffffffffffff16815260200190815260200160002060005a6122576133c7565b73ffffffffffffffffffffffffffffffffffffffff1673ffffffffffffffffffffffffffffffffffffffff16815260200190815260200160002060009061229c613364565b906101000a900460ff165b6040518060400160405280600681526020017f30303330303400000000000000000000000000000000000000000000000000008152509061238c576040517f08c379a00000000000000000000000000000000000000000000000000000000081526004018080602001828103825283818151815260200191508051906020019080838360005b8381101561234857808201518184015260208101905061232d565b50505050905090810190601f1680156123755780820380516001836020036101000a031916815260200191505b5092505050604051809103906123896132f6565b50505b5083600073ffffffffffffffffffffffffffffffffffffffff16600160008381526020019081526020016000206000906123c4613364565b906101000a900473ffffffffffffffffffffffffffffffffffffffff1673ffffffffffffffffffffffffffffffffffffffff1614156040518060400160405280600681526020017f3030333030320000000000000000000000000000000000000000000000000000815250906124de576040517f08c379a00000000000000000000000000000000000000000000000000000000081526004018080602001828103825283818151815260200191508051906020019080838360005b8381101561249a57808201518184015260208101905061247f565b50505050905090810190601f1680156124c75780820380516001836020036101000a031916815260200191505b5092505050604051809103906124db6132f6565b50505b506000600160008781526020019081526020016000206000906124ff613364565b906101000a900473ffffffffffffffffffffffffffffffffffffffff1690508773ffffffffffffffffffffffffffffffffffffffff168173ffffffffffffffffffffffffffffffffffffffff16146040518060400160405280600681526020017f303033303037000000000000000000000000000000000000000000000000000081525090612632576040517f08c379a00000000000000000000000000000000000000000000000000000000081526004018080602001828103825283818151815260200191508051906020019080838360005b838110156125ee5780820151818401526020810190506125d3565b50505050905090810190601f16801561261b5780820380516001836020036101000a031916815260200191505b50925050506040518091039061262f6132f6565b50505b50600073ffffffffffffffffffffffffffffffffffffffff168773ffffffffffffffffffffffffffffffffffffffff1614156040518060400160405280600681526020017f303033303031000000000000000000000000000000000000000000000000000081525090612749576040517f08c379a00000000000000000000000000000000000000000000000000000000081526004018080602001828103825283818151815260200191508051906020019080838360005b838110156127055780820151818401526020810190506126ea565b50505050905090810190601f1680156127325780820380516001836020036101000a031916815260200191505b5092505050604051809103906127466132f6565b50505b50612754878761205c565b6127738773ffffffffffffffffffffffffffffffffffffffff166132a4565b15612a1a5760008773ffffffffffffffffffffffffffffffffffffffff1663150b7a025a61279f6133c7565b8b8a8a6040518563ffffffff1660e01b8152600401808573ffffffffffffffffffffffffffffffffffffffff1681526020018473ffffffffffffffffffffffffffffffffffffffff16815260200183815260200180602001828103825283818151815260200191508051906020019080838360005b8381101561282f578082015181840152602081019050612814565b50505050905090810190601f16801561285c5780820380516001836020036101000a031916815260200191505b509550505050505060206040518083038160008780612879613489565b15801561288e5760008061288b6132f6565b50505b505a6128986134ec565b5050505050501580156128b8573d6000803e3d60006128b56132f6565b50505b505050506040513d60208110156128d7576000806128d46132f6565b50505b8101908080519060200190929190505050905063150b7a0260e01b7bffffffffffffffffffffffffffffffffffffffffffffffffffffffff1916817bffffffffffffffffffffffffffffffffffffffffffffffffffffffff1916146040518060400160405280600681526020017f303033303035000000000000000000000000000000000000000000000000000081525090612a17576040517f08c379a00000000000000000000000000000000000000000000000000000000081526004018080602001828103825283818151815260200191508051906020019080838360005b838110156129d35780820151818401526020810190506129b8565b50505050905090810190601f168015612a005780820380516001836020036101000a031916815260200191505b509250505060405180910390612a146132f6565b50505b50505b5050505050505050565b6000600360008373ffffffffffffffffffffffffffffffffffffffff1673ffffffffffffffffffffffffffffffffffffffff168152602001908152602001600020612a6d613364565b9050919050565b600073ffffffffffffffffffffffffffffffffffffffff168273ffffffffffffffffffffffffffffffffffffffff1614156040518060400160405280600681526020017f303033303031000000000000000000000000000000000000000000000000000081525090612b8a576040517f08c379a00000000000000000000000000000000000000000000000000000000081526004018080602001828103825283818151815260200191508051906020019080838360005b83811015612b46578082015181840152602081019050612b2b565b50505050905090810190601f168015612b735780820380516001836020036101000a031916815260200191505b509250505060405180910390612b876132f6565b50505b50600073ffffffffffffffffffffffffffffffffffffffff1660016000838152602001908152602001600020600090612bc1613364565b906101000a900473ffffffffffffffffffffffffffffffffffffffff1673ffffffffffffffffffffffffffffffffffffffff16146040518060400160405280600681526020017f303033303036000000000000000000000000000000000000000000000000000081525090612cda576040517f08c379a00000000000000000000000000000000000000000000000000000000081526004018080602001828103825283818151815260200191508051906020019080838360005b83811015612c96578082015181840152602081019050612c7b565b50505050905090810190601f168015612cc35780820380516001836020036101000a031916815260200191505b509250505060405180910390612cd76132f6565b50505b50612ce58282613058565b808273ffffffffffffffffffffffffffffffffffffffff16600073ffffffffffffffffffffffffffffffffffffffff167fddf252ad1be2c89b69c2b068fc378daa952ba7f163c4a11628f55a4df523b3ef60405160405180910390a45050565b80600760008481526020019081526020016000209080519060200190612d6c9291906135ec565b505050565b600073ffffffffffffffffffffffffffffffffffffffff1660026000838152602001908152602001600020600090612da7613364565b906101000a900473ffffffffffffffffffffffffffffffffffffffff1673ffffffffffffffffffffffffffffffffffffffff1614612e26576002600082815260200190815260200160002060006101000a81612e01613364565b9073ffffffffffffffffffffffffffffffffffffffff02191690612e23613424565b50505b50565b8173ffffffffffffffffffffffffffffffffffffffff1660016000838152602001908152602001600020600090612e5e613364565b906101000a900473ffffffffffffffffffffffffffffffffffffffff1673ffffffffffffffffffffffffffffffffffffffff16146040518060400160405280600681526020017f303033303037000000000000000000000000000000000000000000000000000081525090612f77576040517f08c379a00000000000000000000000000000000000000000000000000000000081526004018080602001828103825283818151815260200191508051906020019080838360005b83811015612f33578082015181840152602081019050612f18565b50505050905090810190601f168015612f605780820380516001836020036101000a031916815260200191505b509250505060405180910390612f746132f6565b50505b506001600360008473ffffffffffffffffffffffffffffffffffffffff1673ffffffffffffffffffffffffffffffffffffffff168152602001908152602001600020612fc1613364565b03600360008473ffffffffffffffffffffffffffffffffffffffff1673ffffffffffffffffffffffffffffffffffffffff168152602001908152602001600020819061300b613424565b5050506001600082815260200190815260200160002060006101000a81613030613364565b9073ffffffffffffffffffffffffffffffffffffffff02191690613052613424565b50505050565b600073ffffffffffffffffffffffffffffffffffffffff166001600083815260200190815260200160002060009061308e613364565b906101000a900473ffffffffffffffffffffffffffffffffffffffff1673ffffffffffffffffffffffffffffffffffffffff16146040518060400160405280600681526020017f3030333030360000000000000000000000000000000000000000000000000000815250906131a7576040517f08c379a00000000000000000000000000000000000000000000000000000000081526004018080602001828103825283818151815260200191508051906020019080838360005b83811015613163578082015181840152602081019050613148565b50505050905090810190601f1680156131905780820380516001836020036101000a031916815260200191505b5092505050604051809103906131a46132f6565b50505b50816001600083815260200190815260200160002060006101000a816131cb613364565b8173ffffffffffffffffffffffffffffffffffffffff021916908373ffffffffffffffffffffffffffffffffffffffff16021790613207613424565b5050506001600360008473ffffffffffffffffffffffffffffffffffffffff1673ffffffffffffffffffffffffffffffffffffffff168152602001908152602001600020613253613364565b01600360008473ffffffffffffffffffffffffffffffffffffffff1673ffffffffffffffffffffffffffffffffffffffff168152602001908152602001600020819061329d613424565b5050505050565b60008060007fc5d2460186f7233c927e7db2dcc703c0e500b653ca82273b7bfad8045d85a47060001b9050836132d86136a5565b91506000801b82141580156132ed5750808214155b92505050919050565b632a2a7adb598160e01b8152600481016020815285602082015260005b86811015613331578086015181604084010152602081019050613313565b506020828760640184336000905af158600e01573d6000803e3d6000fd5b3d6001141558600a015760016000f35b505050565b6303daa959598160e01b8152836004820152602081602483336000905af158600e01573d6000803e3d6000fd5b3d6001141558600a015760016000f35b8051935060005b60408110156133c2576000818301526020810190506133a8565b505050565b6373509064598160e01b8152602081600483336000905af158600e01573d6000803e3d6000fd5b3d6001141558600a015760016000f35b8051935060005b604081101561341f57600081830152602081019050613405565b505050565b6322bd64c0598160e01b8152836004820152846024820152600081604483336000905af158600e01573d6000803e3d6000fd5b3d6001141558600a015760016000f35b60005b60408110156134845760008183015260208101905061346a565b505050565b638435035b598160e01b8152836004820152602081602483336000905af158600e01573d6000803e3d6000fd5b3d6001141558600a015760016000f35b8051935060005b60408110156134e7576000818301526020810190506134cd565b505050565b6385979f76598160e01b815261352b565b60008190508183111561350e578290505b92915050565b600081905081831015613525578290505b92915050565b836004820152846024820152606060448201528760648201526084810160005b8981101561356657808901518183015260208101905061354b565b506060828a60a40184336000905af158600e01573d6000803e3d6000fd5b3d6001141558600a015760016000f35b815160408301513d6000853e8c8c82606087013350600060045af150596135bb8e3d613514565b8d016135c781876134fd565b5b828110156135df57600081526020810190506135c8565b50839e5050505050505050565b82806135f6613364565b600181600116156101000203166002900490600052602060002090601f0160209004810192826136325760008561362b613424565b5050613694565b82601f1061365457805160ff1916838001178561364d613424565b5050613694565b82800160010185613663613424565b50508215613694579182015b8281111561369357825182613682613424565b50509160200191906001019061366f565b5b5090506136a19190613708565b5090565b6324749d5c598160e01b8152836004820152602081602483336000905af158600e01573d6000803e3d6000fd5b3d6001141558600a015760016000f35b8051935060005b6040811015613703576000818301526020810190506136e9565b505050565b5b8082111561372a5760008160009061371f613424565b505050600101613709565b509056",
  "linkReferences": {},
  "deployedLinkReferences": {}
}